{
  "_format": "hh-sol-artifact-1",
  "contractName": "CampaignBudget",
  "sourceName": "contracts/CampaignBudget.sol",
  "abi": [
    {
      "anonymous": false,
      "inputs": [
        {
          "indexed": true,
          "internalType": "uint256",
          "name": "campaignId",
          "type": "uint256"
        },
        {
          "indexed": true,
          "internalType": "address",
          "name": "funder",
          "type": "address"
        },
        {
          "indexed": false,
          "internalType": "uint256",
          "name": "amount",
          "type": "uint256"
        }
      ],
      "name": "CampaignFunded",
      "type": "event"
    },
    {
      "anonymous": false,
      "inputs": [
        {
          "indexed": true,
          "internalType": "uint256",
          "name": "campaignId",
          "type": "uint256"
        },
        {
          "indexed": false,
          "internalType": "uint256",
          "name": "roiScore",
          "type": "uint256"
        },
        {
          "indexed": true,
          "internalType": "address",
          "name": "settler",
          "type": "address"
        }
      ],
      "name": "CampaignSettled",
      "type": "event"
    },
    {
      "anonymous": false,
      "inputs": [
        {
          "indexed": true,
          "internalType": "address",
          "name": "previousOwner",
          "type": "address"
        },
        {
          "indexed": true,
          "internalType": "address",
          "name": "newOwner",
          "type": "address"
        }
      ],
      "name": "OwnershipTransferred",
      "type": "event"
    },
    {
      "inputs": [
        {
          "internalType": "uint256",
          "name": "",
          "type": "uint256"
        }
      ],
      "name": "budgets",
      "outputs": [
        {
          "internalType": "uint256",
          "name": "",
          "type": "uint256"
        }
      ],
      "stateMutability": "view",
      "type": "function"
    },
    {
      "inputs": [
        {
          "internalType": "uint256",
          "name": "campaignId",
          "type": "uint256"
        }
      ],
      "name": "fundCampaign",
      "outputs": [],
      "stateMutability": "payable",
      "type": "function"
    },
    {
      "inputs": [
        {
          "internalType": "uint256",
          "name": "campaignId",
          "type": "uint256"
        }
      ],
      "name": "getBudget",
      "outputs": [
        {
          "internalType": "uint256",
          "name": "",
          "type": "uint256"
        }
      ],
      "stateMutability": "view",
      "type": "function"
    },
    {
      "inputs": [],
      "name": "owner",
      "outputs": [
        {
          "internalType": "address",
          "name": "",
          "type": "address"
        }
      ],
      "stateMutability": "view",
      "type": "function"
    },
    {
      "inputs": [],
      "name": "renounceOwnership",
      "outputs": [],
      "stateMutability": "nonpayable",
      "type": "function"
    },
    {
      "inputs": [
        {
          "internalType": "uint256",
          "name": "",
          "type": "uint256"
        }
      ],
      "name": "roiScores",
      "outputs": [
        {
          "internalType": "uint256",
          "name": "",
          "type": "uint256"
        }
      ],
      "stateMutability": "view",
      "type": "function"
    },
    {
      "inputs": [
        {
          "internalType": "uint256",
          "name": "campaignId",
          "type": "uint256"
        },
        {
          "internalType": "uint256",
          "name": "roiScore",
          "type": "uint256"
        }
      ],
      "name": "settleCampaign",
      "outputs": [],
      "stateMutability": "nonpayable",
      "type": "function"
    },
    {
      "inputs": [
        {
          "internalType": "uint256",
          "name": "",
          "type": "uint256"
        }
      ],
      "name": "settled",
      "outputs": [
        {
          "internalType": "bool",
          "name": "",
          "type": "bool"
        }
      ],
      "stateMutability": "view",
      "type": "function"
    },
    {
      "inputs": [
        {
          "internalType": "address",
          "name": "newOwner",
          "type": "address"
        }
      ],
      "name": "transferOwnership",
      "outputs": [],
      "stateMutability": "nonpayable",
      "type": "function"
    },
    {
      "inputs": [
        {
          "internalType": "uint256",
          "name": "campaignId",
          "type": "uint256"
        },
        {
          "internalType": "address payable",
          "name": "to",
          "type": "address"
        }
      ],
      "name": "withdrawUnspent",
      "outputs": [],
      "stateMutability": "nonpayable",
      "type": "function"
    }
  ],
  "bytecode": "0x608060405234801561001057600080fd5b5061002d61002261003260201b60201c565b61003a60201b60201c565b6100fe565b600033905090565b60008060009054906101000a900473ffffffffffffffffffffffffffffffffffffffff169050816000806101000a81548173ffffffffffffffffffffffffffffffffffffffff021916908373ffffffffffffffffffffffffffffffffffffffff1602179055508173ffffffffffffffffffffffffffffffffffffffff168173ffffffffffffffffffffffffffffffffffffffff167f8be0079c531659141344cd1fd0a4f28419497f9722a3daafe3b4186f6b6457e060405160405180910390a35050565b610da08061010d6000396000f3fe6080604052600436106100915760003560e01c806392bd38bc1161005957806392bd38bc1461018f578063cbcd0326146101ab578063f017baf5146101e8578063f01f792c14610211578063f2fde38b1461023a57610091565b806328345780146100965780632e4ea4c4146100d357806369f0e05f14610110578063715018a61461014d5780638da5cb5b14610164575b600080fd5b3480156100a257600080fd5b506100bd60048036038101906100b89190610802565b610263565b6040516100ca919061084a565b60405180910390f35b3480156100df57600080fd5b506100fa60048036038101906100f59190610802565b610283565b6040516101079190610874565b60405180910390f35b34801561011c57600080fd5b5061013760048036038101906101329190610802565b6102a0565b6040516101449190610874565b60405180910390f35b34801561015957600080fd5b506101626102b8565b005b34801561017057600080fd5b506101796102cc565b60405161018691906108d0565b60405180910390f35b6101a960048036038101906101a49190610802565b6102f5565b005b3480156101b757600080fd5b506101d260048036038101906101cd9190610802565b6103b4565b6040516101df9190610874565b60405180910390f35b3480156101f457600080fd5b5061020f600480360381019061020a91906108eb565b6103cc565b005b34801561021d57600080fd5b5061023860048036038101906102339190610969565b6104cc565b005b34801561024657600080fd5b50610261600480360381019061025c91906109d5565b6105fa565b005b60026020528060005260406000206000915054906101000a900460ff1681565b600060016000838152602001908152602001600020549050919050565b60016020528060005260406000206000915090505481565b6102c061067d565b6102ca60006106fb565b565b60008060009054906101000a900473ffffffffffffffffffffffffffffffffffffffff16905090565b60003411610338576040517f08c379a000000000000000000000000000000000000000000000000000000000815260040161032f90610a5f565b60405180910390fd5b3460016000838152602001908152602001600020600082825461035b9190610aae565b925050819055503373ffffffffffffffffffffffffffffffffffffffff16817f8a488dc8cd2ade9e472d438b05d4ca99d4b6eb64c602e26a33888999bcdc7df3346040516103a99190610874565b60405180910390a350565b60036020528060005260406000206000915090505481565b6103d461067d565b6002600083815260200190815260200160002060009054906101000a900460ff1615610435576040517f08c379a000000000000000000000000000000000000000000000000000000000815260040161042c90610b2e565b60405180910390fd5b60016002600084815260200190815260200160002060006101000a81548160ff0219169083151502179055508060036000848152602001908152602001600020819055503373ffffffffffffffffffffffffffffffffffffffff16827f14c464c71ffcf62fe6ab8ac9d2e3171dd4e4873dc4c34c4a24b58af23c2baf74836040516104c09190610874565b60405180910390a35050565b6104d461067d565b6000600160008481526020019081526020016000205490506000811161052f576040517f08c379a000000000000000000000000000000000000000000000000000000000815260040161052690610b9a565b60405180910390fd5b6000600160008581526020019081526020016000208190555060008273ffffffffffffffffffffffffffffffffffffffff168260405161056e90610beb565b60006040518083038185875af1925050503d80600081146105ab576040519150601f19603f3d011682016040523d82523d6000602084013e6105b0565b606091505b50509050806105f4576040517f08c379a00000000000000000000000000000000000000000000000000000000081526004016105eb90610c4c565b60405180910390fd5b50505050565b61060261067d565b600073ffffffffffffffffffffffffffffffffffffffff168173ffffffffffffffffffffffffffffffffffffffff1603610671576040517f08c379a000000000000000000000000000000000000000000000000000000000815260040161066890610cde565b60405180910390fd5b61067a816106fb565b50565b6106856107bf565b73ffffffffffffffffffffffffffffffffffffffff166106a36102cc565b73ffffffffffffffffffffffffffffffffffffffff16146106f9576040517f08c379a00000000000000000000000000000000000000000000000000000000081526004016106f090610d4a565b60405180910390fd5b565b60008060009054906101000a900473ffffffffffffffffffffffffffffffffffffffff169050816000806101000a81548173ffffffffffffffffffffffffffffffffffffffff021916908373ffffffffffffffffffffffffffffffffffffffff1602179055508173ffffffffffffffffffffffffffffffffffffffff168173ffffffffffffffffffffffffffffffffffffffff167f8be0079c531659141344cd1fd0a4f28419497f9722a3daafe3b4186f6b6457e060405160405180910390a35050565b600033905090565b600080fd5b6000819050919050565b6107df816107cc565b81146107ea57600080fd5b50565b6000813590506107fc816107d6565b92915050565b600060208284031215610818576108176107c7565b5b6000610826848285016107ed565b91505092915050565b60008115159050919050565b6108448161082f565b82525050565b600060208201905061085f600083018461083b565b92915050565b61086e816107cc565b82525050565b60006020820190506108896000830184610865565b92915050565b600073ffffffffffffffffffffffffffffffffffffffff82169050919050565b60006108ba8261088f565b9050919050565b6108ca816108af565b82525050565b60006020820190506108e560008301846108c1565b92915050565b60008060408385031215610902576109016107c7565b5b6000610910858286016107ed565b9250506020610921858286016107ed565b9150509250929050565b60006109368261088f565b9050919050565b6109468161092b565b811461095157600080fd5b50565b6000813590506109638161093d565b92915050565b600080604083850312156109805761097f6107c7565b5b600061098e858286016107ed565b925050602061099f85828601610954565b9150509250929050565b6109b2816108af565b81146109bd57600080fd5b50565b6000813590506109cf816109a9565b92915050565b6000602082840312156109eb576109ea6107c7565b5b60006109f9848285016109c0565b91505092915050565b600082825260208201905092915050565b7f4d7573742073656e642045544800000000000000000000000000000000000000600082015250565b6000610a49600d83610a02565b9150610a5482610a13565b602082019050919050565b60006020820190508181036000830152610a7881610a3c565b9050919050565b7f4e487b7100000000000000000000000000000000000000000000000000000000600052601160045260246000fd5b6000610ab9826107cc565b9150610ac4836107cc565b9250828201905080821115610adc57610adb610a7f565b5b92915050565b7f416c726561647920736574746c65640000000000000000000000000000000000600082015250565b6000610b18600f83610a02565b9150610b2382610ae2565b602082019050919050565b60006020820190508181036000830152610b4781610b0b565b9050919050565b7f4e6f2066756e6473000000000000000000000000000000000000000000000000600082015250565b6000610b84600883610a02565b9150610b8f82610b4e565b602082019050919050565b60006020820190508181036000830152610bb381610b77565b9050919050565b600081905092915050565b50565b6000610bd5600083610bba565b9150610be082610bc5565b600082019050919050565b6000610bf682610bc8565b9150819050919050565b7f5472616e73666572206661696c65640000000000000000000000000000000000600082015250565b6000610c36600f83610a02565b9150610c4182610c00565b602082019050919050565b60006020820190508181036000830152610c6581610c29565b9050919050565b7f4f776e61626c653a206e6577206f776e657220697320746865207a65726f206160008201527f6464726573730000000000000000000000000000000000000000000000000000602082015250565b6000610cc8602683610a02565b9150610cd382610c6c565b604082019050919050565b60006020820190508181036000830152610cf781610cbb565b9050919050565b7f4f776e61626c653a2063616c6c6572206973206e6f7420746865206f776e6572600082015250565b6000610d34602083610a02565b9150610d3f82610cfe565b602082019050919050565b60006020820190508181036000830152610d6381610d27565b905091905056fea26469706673582212201e14dd92ac33f9f76f04a60c24e0aeffea3f06d4dddc994d84797721a25ce2d864736f6c63430008140033",
  "linkReferences": {},
  "deployedLinkReferences": {}
}